:100000000C945F080C947C080C947C080C947C087D
:100010000C947C080C947C080C947C080C947C0850
:100020000C947C080C947C080C94712C0C943D2D41
:100030000C94D6240C947C080C947C080C947C08BA
:100040000C947C080C947C080C947C080C947C0820
:100050000C947C080C944D250C947C080C947C0822
:100060000C947C080C947C080C947C080C947C0800
:100070000C947C080C947C080C947C080C947C08F0
:100080000C947C080C947C080C947C080C947C08E0
:100090000C947C080C947C080C947C080C947C08D0
:1000A0000C947C080C947C080C947C08417474615A
:1000B00063686564004E6F742041747461636865A1
:1000C0006400496E697420437573746F6D204D61CF
:1000D000747269780A0073657474696E672075704C
:1000E0002050554C4C205550204120616E642042D8
:1000F000202573200A0073657474696E672075701B
:1001000020494F20446972656374696F6E204220F4
:100110002573200A0073657474696E6720757020FA
:10012000494F20446972656374696F6E20412025D0
:1001300073200A0053657474696E672055702049F6
:100140004F434F4E202573200A000000000000009E
:10015000000000000000000000000000000000009F
:100160000000000000FCFCFCDCDCDCDCDE8CFCFEC7
:10017000FC00000000FCFEFCFCFEFC1C1C1CFCFC4B
:10018000F0FCFEFC00000000000000000000000089
:10019000000000000000000000000000000000005F
:1001A000000000000000000000000000000000004F
:1001B000000000000000000000000000000000003F
:1001C000000000000000000000000000000000002F
:1001D000000000000000000000000000000000001F
:1001E00000000000003939393939393F3F3F073FB6
:1001F0003F383838383F3F073F3F3F3838383F3F78
:10020000073F3F3F0000000000000000000000002A
:1002100000000000000000000000000000000000DE
:1002200000000000000000000000000000000000CE
:1002300000000000000000000000000000000000BE
:1002400000000000000000000000000000000000AE
:10025000000000000000000000000000000000009E
:100260000000000000F8FCFC8080E0FC7C1CFCFC32
:10027000FC9C9C9C1C1C181C7CFCE08080F0FC7C82
:1002800018FCFCFC9C9CBCFCF860E0FCFC1C1C1CEE
:100290003CFCF8E0E0FCFC9C9CFCFCF0E0FCFCFC82
:1002A0009C9CFCFCF060FCFCFC1C1CFCFCE00000CA
:1002B000000000000000000000000000000000003E
:1002C000000000000000000000000000000000002E
:1002D000000000000000000000000000000000001E
:1002E00000000000003F7F7F03030F7F7C707F7F53
:1002F0007F7373737170300000033F7F7F030100D1
:10030000007F7F7F73737B7F3F0C0F7F7F707070E8
:10031000787F3F0F7F7F7F03033F7F7F3F7F7F7F1C
:1003200003033F7F7E3C7F7F7F70707F7F0F0000E5
:1003300000000000000000000000000000000000BD
:1003400000000000000000000000554E44460A0076
:10035000534846540A00424153450A0020202020B9
:100360000A00434150530A004C617965720A004B00
:100370004C3A20636F6C3A2025752C20726F773AC7
:100380002025752C20707265737365643A2025757D
:100390000A00290004001B00215222001C00E0007A
:1003A0002B001D00E200210017003500500039002D
:1003B000E300200015000A004D004F00E5001F007B
:1003C0000800090005004A002B001E001A00070063
:1003D00019002C004B00E500140016000600280050
:1003E00023004E00E3002A0034003700E20025001D
:1003F00018002A0031003800230226000C000B00F0
:10040000520028002102270012000D004D0051006B
:10041000E5002D0013000E0011004A003A002E00E6
:100420002F000F001000E1004B003D0030003300B2
:1004300036004C0024004E003E0029000000000061
:100440000000220200000000000000000000210265
:1004500000003502CF0000001F0220020000000053
:100460000000D000000000000000000000000000BC
:1004700000001E020000000000000000000000005C
:1004800000000000000000002302000000002A001D
:100490003402370200002502000000003102380259
:1004A000000026020000DB00CD0000000000270253
:1004B0000000DA000000CE0000002D020000D9008C
:1004C000D100000000002E022F02DC00D20000004C
:1004D0000000017C300233023602000024020000DA
:1004E000007C4553432C5441422C434150535253BA
:1004F0004654312C2020512C2020412020205A2CE1
:1005000020204C475549322C2020572C2020532C9A
:100510002020582C20204C414C54332C2020452C9A
:100520002020442C2020432C20204D4F3120342CDF
:100530002020522C2020462C2020562C2020454EB6
:10054000542C352C2020542C2020472C2020422CA9
:1005500020205350432C362C2020592C2020475249
:10056000562C454E442C484F4D455047555050470A
:10057000444E4C43544C4C454654524748545441C5
:10058000422C525346544C475549202020202020CD
:10059000202020202020202020202020202020205B
:1005A0002020202020204253504342534C53454E9C
:1005B000542C5253465445514C2C5242524351559F
:1005C0004F54534C5348444C522C4D494E534C427B
:1005D000524353434C4E444F542C43495243302CC6
:1005E0002020502C20204C2C2020434F4D4D4445A2
:1005F0004C2C392C20204F2C20204B2C20204D2CF3
:10060000202042535043382C2020492C20204A2CB3
:1006100020204E2C20204C534654372C2020552C83
:100620002020482C20204553432C484F4D4550470F
:1006300055505047444E4C414C5455502C20444F3B
:10064000574E46312C2046342C20463520200000C1
:10065000000000000000000000000000000000009A
:10066000000000000000000000000000000000008A
:10067000000000000000000000000000000000007A
:10068000000000000000000000000000000000006A
:10069000000000000000000000000000000000005A
:1006A000000000000000000000000000000000004A
:1006B000000000000000000000000000000000003A
:1006C000000000000000000000000000000000002A
:1006D000000000000000000000000000000000001A
:1006E000000000000000000000000000000000000A
:1006F00000000000000000000000000000000000FA
:1007000000000000000000000000000000000000E9
:1007100000000000000000000000000000000000D9
:1007200000000000000000000000000000000000C9
:1007300000000000000000000000000000000000B9
:1007400000000000000000000000000000000000A9
:100750000000000000000000000000000000000099
:100760000000000000000000000000000000000089
:100770000000000000000000000000000000000079
:10078000000044454255473A2064697361626C65D4
:10079000642E0A0044454255473A20656E61626CFA
:1007A00065642E0A006C65645F7461736B3A202582
:1007B0003032580A004F6E6573686F743A20616377
:1007C000746976653A2025640A000A00253038628B
:1007D000003A200025303258000A722F6320303151
:1007E0003233343536370A006F6C65645F6F666686
:1007F00020636D64206661696C65640A0000AE6FF9
:100800006C65645F6F6E20636D64206661696C6502
:10081000640A0000AF6F6C65645F72656E64657238
:1008200039302064617461206661696C65640A0016
:100830006F6C65645F72656E64657220646174617B
:10084000206661696C65640A006F6C65645F72653F
:100850006E646572206F666673657420636F6D6D7C
:10086000616E64206661696C65640A006469737016
:100870006C61795F736574757032206661696C654F
:10088000640A0000DA0281FFD9F1DB20A4A62EAFB2
:10089000646973706C61795F666C697070656420FF
:1008A0006661696C65640A0000A0C0D3006F6C6566
:1008B000645F696E697420636D64206E6F726D6130
:1008C0006C20726F746174696F6E206661696C650B
:1008D000640A0000A1C8D3006F6C65645F696E692B
:1008E0007420636D64207365742031206661696CC7
:1008F00065640A0000AED580A81F408D1420000753
:10090000087F0807003E5B4F5B3E003E6B4F6B3E2F
:10091000001C3E7C3E1C00183C7E3C18001C577D91
:10092000571C001C5E7F5E1C0000183C180000FF76
:10093000E7C3E7FF00001824180000FFE7DBE7FF2C
:100940000030483A060E00262979292600407F0506
:10095000050700407F05253F005A3CE73C5A007FD1
:100960003E1C1C0800081C1C3E7F0014227F221421
:10097000005F5F005F5F0006097F017F00006689FE
:10098000956A0060606060600094A2FFA294000815
:10099000047E04080010207E20100008082A1C088D
:1009A00000081C2A0808001E10101010000C1E0C55
:1009B0001E0C0030383E383000060E3E0E06000099
:1009C000000000000000005F0000000007000700BA
:1009D00000147F147F1400242A7F2A120023130896
:1009E00064620036495620500000080703000000EA
:1009F0001C224100000041221C00002A1C7F1C2AEE
:100A00000008083E08080000807030000008080850
:100A10000808000000606000002010080402003E8A
:100A20005149453E0000427F400000724949494615
:100A3000002141494D33001814127F10002745450D
:100A40004539003C4A494931004121110907003626
:100A50004949493600464949291E00000014000052
:100A60000000403400000000081422410014141457
:100A70001414000041221408000201590906003E26
:100A8000415D594E007C1211127C007F4949493664
:100A9000003E41414122007F4141413E007F4949A2
:100AA0004941007F09090901003E41415173007F1E
:100AB0000808087F0000417F4100002040413F01BD
:100AC000007F08142241007F40404040007F021C0C
:100AD000027F007F0408107F003E4141413E007FBD
:100AE00009090906003E4151215E007F0919294686
:100AF0000026494949320003017F0103003F40407D
:100B0000403F001F2040201F003F4038403F00630F
:100B100014081463000304780403006159494D4329
:100B200000007F41414100020408102000004141C3
:100B3000417F0004020102040040404040400000A8
:100B400003070800002054547840007F28444438AC
:100B500000384444442800384444287F0038545422
:100B600054180000087E09020018A4A49C78007F95
:100B7000080404780000447D4000002040403D000F
:100B8000007F102844000000417F4000007C047872
:100B90000478007C0804047800384444443800FC9D
:100BA000182424180018242418FC007C08040408C5
:100BB0000048545454240004043F4424003C404062
:100BC000207C001C2040201C003C4030403C004465
:100BD00028102844004C9090907C004464544C446D
:100BE0000000083641000000007700000000413698
:100BF0000800000201020402003C2623263C0000FB
:100C00000000000000404040F0F8F8FF38FFF8F81E
:100C10003FF8F8FF38FFF8F8F040404000000000CF
:100C2000000080C0C0C0800000C0C0800000008004
:100C3000C0C000C0C0000080C0C00000000000C0F4
:100C4000C0C0C0C000C0C000000000000000000024
:100C50000000000000000000000000000000000094
:100C60000000000000000000000000000000000084
:100C70000000000000000000000000000000C0F0C4
:100C8000F8FC3E1E06010000007F4141417F007FCD
:100C90004141417F000080C0E07E5B4F5BFEC000B1
:100CA00000C000DCD7DEDEDED7DC00C000000000C4
:100CB0000000000000000000000000000000000034
:100CC0000000000000494949FFFFFFFFE0DFBFBF10
:100CD00000BFBFDFE0FFFFFFFF4949490000000000
:100CE000001F3F6060E0BF1F007F7F071E381E07A8
:100CF0007F7F007F7F0E1F3B716000000000007F40
:100D00007F0C0C0C007E7E007F7E0303007F7E0341
:100D1000037E7E03037F7E000F3E703C063C703EE8
:100D20000F00327B49493F7E007F7E0303001E3F58
:100D300069696F2600000000000000000000030F3A
:100D40001F3F3C7870600000007F4141417F007F81
:100D50004141417F00307B7F7830202030787F3BDD
:100D60000003000F7F0F0F0F7F0F00030000000034
:100D70000000000000000000000000000000000073
:100D80000000000000010101070F0F7F0F7F0F0F10
:100D90007E0F0F7F0F7F0F0F070101010000000082
:100DA0000000000000000101000000000000000041
:100DB0000000000000000000000000000000000033
:100DC0000000000000000000000000000000000023
:100DD0000000000000000000000000000000000013
:100DE0000000000000000000000000000000000003
:100DF00000000000000000000000000000000000F3
:100E000000000000000000000000000000000000E2
:100E100000000000000000000000000000000000D2
:100E200000000000000000000000000000000000C2
:100E30000000000000000000000000000000002989
:100E40000A002575002F002575005D280025640027
:100E50002000256400200025640020002564007C1B
:100E60000025303258006D6F7573656B6579205BB6
:100E700062746E7C782079207620685D28726570B7
:100E80002F61636C293A205B000A0025303258201C
:100E9000006E6B726F5F7265706F72743A202530EE
:100EA0003258207C20000A002530325820006B6523
:100EB00079626F6172645F7265706F72743A202537
:100EC000303258207C200064656C5F6B65795F620E
:100ED00069743A2063616E27742064656C3A20253A
:100EE0003032580A006164645F6B65795F626974CF
:100EF0003A2063616E2774206164643A20253032A1
:100F0000580A0073757370656E64696E67206B654F
:100F100079626F6172640D0A005B575D005B535D1F
:100F2000005B525D005B445D005B435D000E03535C
:100F3000007500640069005600310000000603419E
:100F400000680000000403090409025400030100C2
:100F5000A0FA0904000001030101000921110100A8
:100F60000122440007058103080001090401000172
:100F70000300000009211101000122B600070582CB
:100F800003200001090402000103000000092111EF
:100F90000100012215000705830320000112010052
:100FA0000200000008EDFEFA0F0001010200010638
:100FB00031FF0974A1010975150026FF0095207500
:100FC000088102C005010902A10185020901A100F1
:100FD00005091901290815002501950875018102E7
:100FE0000501093009311581257F950275088106B3
:100FF00009381581257F950175088106050C0A3889
:10100000021581257F950175088106C0C00501097B
:1010100080A101850319012AB700150126B70095A3
:101020000175108100C0050C0901A1018504190199
:101030002AA002150126A002950175108100C005A5
:10104000010906A1018506050719E029E715002514
:10105000019508750181020507190029EF15002582
:101060000195F0750181020508190129059505759D
:10107000019102950175039101C005010906A101C5
:10108000050719E029E7150025019508750181027A
:101090009501750881010507190029FF150026FF34
:1010A0000095067508810005081901290515002518
:1010B00001950575019102950175039101C01124F7
:1010C0001FBECFEFDAE0DEBFCDBF11E0A0E0B1E0A0
:1010D000EEEDFFE502C005900D92A43CB107D9F7F3
:1010E00025E0A4ECB1E001C01D92A133B207E1F705
:1010F0000E94041A0C949B2F0C940000FF93EF9312
:10110000E091C401F091C501309709F00995EF9184
:10111000FF910895FC018591803011F0EFDFFBCF46
:101120000895FF27E0E230E247FF0CC0419597FFAA
:1011300009C0EDE26095709580959095611D711DD7
:10114000811D911D27FF02C0219530E350E2AA279F
:10115000660F771F881F991FAA1FA41710F0A41BE2
:1011600063955A95A9F7AA3008F0A95FA05DAF93DF
:10117000F395611571058105910541F7ED3211F483
:10118000EF93F395F21718F43F93F395FBCF8F91FC
:10119000B5DFFA95E1F70895E991F99185918030ED
:1011A00021F0853219F0AADFF9CF089520E0E89404
:1011B00055915532C1F3503311F4689455915A3317
:1011C00048F4505390F3220F022E220F220F200DCD
:1011D000250FF4CF0EF4219589919991533619F387
:1011E000533729F1533559F1BC0188279927E894E1
:1011F0005C3621F48991999168945591543639F46B
:1012000046EF7EF077FF0DC08FEF9FEF0AC0553796
:101210004AE039F0583540E121F0523642E009F019
:101220000895FF93EF937DDFEF91FF91B7CFFF9389
:10123000EF93FC0181918030B9F360DFFBCFFF9326
:10124000EF9368DFF1CFDF93CF93CDB7DEB725966D
:10125000A3DFCF91DF910895CF93DF93A7E0B1E0B3
:101260002DE031E041E050E08D91E82FE295EF7004
:10127000EF5DF0E060818F70EA0101C0CC0F8A95CC
:10128000EAF78C2F809586238083FD018291E82FD9
:10129000E295EF70EE5DF0E060818F70EA0101C0D1
:1012A000CC0F8A95EAF78C2F862B80832A173B0771
:1012B000D9F6DF91CF910895CF93DF93A7E0B1E006
:1012C0002DE031E041E050E08D91E82FE295EF70A4
:1012D000EF5DF0E060818F70EA0101C0CC0F8A956C
:1012E000EAF78C2F862B8083FD018291E82FE2950F
:1012F000EF70EE5DF0E060818F70EA0101C0CC0F0D
:101300008A95EAF78C2F862B80832A173B07E1F614
:10131000A0E0B1E027E031E041E050E08D91E82F1E
:10132000E295EF70EF5DF0E060818F70EA0101C03F
:10133000CC0F8A95EAF78C2F809586238083FD0158
:101340008291E82FE295EF70EE5DF0E060818F70A2
:10135000EA0101C0CC0F8A95EAF78C2F862B808397
:101360002A173B07D9F6DF91CF910895A7E0B0E0A7
:10137000ECEBF9E00C94162F8091C90181110EC09D
:101380000E94DA2581E08093C9018FEF94E32CE07D
:10139000815090402040E1F700C000008AE090E2D8
:1013A0008E839F832AEF30E042E050E0CE01069624
:1013B000BC018CE40E944D268093C7019093C80124
:1013C000892B09F482C081E391E09F938F9384E39A
:1013D00091E09F938F9337DF0F900F900F900F90B6
:1013E0008091C7019091C801892B09F068C01C82C7
:1013F0001D828E010C5F1F4F78012AEF30E042E022
:1014000050E0B8018CE40E944D268093C701909370
:10141000C801892B09F45CC081E391E09F938F930D
:1014200085E191E09F938F930EDF81E08C838FE7BE
:101430008D832AEF30E042E050E0B7018CE40E9457
:101440004D268093C7019093C8010F900F900F9085
:101450000F90892B09F43FC081E391E09F938F9314
:1014600086EF90E09F938F93EEDE80912E01909116
:101470002F01A091300189839A83AB832AEF30E05A
:1014800043E050E0CE010196BC018CE40E944D2661
:101490008093C7019093C8010F900F900F900F9009
:1014A000892BE1F08DE391E09F938F9386ED90E09F
:1014B0009F938F93C8DE0F900F900F900F908091A5
:1014C000C7012796E6E00C94322F86E391E07DCFAA
:1014D00086E391E0A3CF86E391E0C0CF86E391E07D
:1014E000E3CFCF93DF938091AC0283608093AC0213
:1014F000E3DEB2DEA0E0B1E027E031E041E050E021
:101500008D91E82FE295EF70EF5DF0E060818F70D4
:10151000EA0101C0CC0F8A95EAF78C2F80958623CB
:101520008083FD018291E82FE295EF70EE5DF0E09F
:1015300060818F70EA0101C0CC0F8A95EAF78C2F89
:10154000862B80832A173B07D9F682EC90E09F9385
:101550008F9379DE0BDF8093C7011092C8010F9043
:101560000F90DF91CF910895A3E0B0E0EAEBFAE0AD
:101570000C940D2F7C018091C7019091C801892B9B
:10158000A9F08091C6018F5F8093C60181110EC0C2
:10159000EDDE90E08093C7011092C80161E0892BD5
:1015A00009F4A2C085EB90E00E949E1B87E0882E84
:1015B00081E0982E8701C12CD12C512C7601E39427
:1015C0003E018FEF681A780AF40181914F01E82FEC
:1015D000E295EF70EF5DF0E020818F70A70101C010
:1015E000440F8A95EAF7842F822B8083F40182913D
:1015F0005F01E82FE295EF70EE5DF0E020818F70E3
:10160000A70101C0440F8A95EAF7842F80958223B1
:1016100080830E94A219E0E0F1E040E050E020E089
:101620003191A32FA295AF70A05EB0E08C9190E0B5
:101630003F7002C0959587953A95E2F780FD57C0B7
:101640008E2D042E01C0880F0A94EAF7282B4F5FD5
:101650005F4F4730510521F7F5018081E82FE29572
:10166000EF70EF5DF0E030818F70A70101C0440F93
:101670008A95EAF7842F809583238083F501808102
:10168000E82FE295EF70EE5DF0E030818F70A701FA
:1016900001C0440F8A95EAF7842F832B8083F801D9
:1016A0008081821719F02083552453948091C701BB
:1016B0009091C801892BE9F080E0F8019681981794
:1016C00019F0868355245394C7DD8FEFC81AD80AC2
:1016D0000F5F1F4F86E0C816D10409F075CF852D26
:1016E0002396EFE00C94292F8CEA90E05DCF80E008
:1016F000ADCF82E189838E2D0C2C01C0880F0A9416
:10170000EAF780958A832AEF30E042E050E0B301A7
:101710008CE40E944D268093C7019093C801892BC9
:1017200059F683E18B8319822AEF30E041E050E0E3
:10173000CE010396BC018CE40E944D268093C70124
:101740009093C801892B79F42AEF30E041E050E012
:10175000B3018CE40E9403278093C7019093C801D2
:101760008981809589838981A8CFA0E0B0E0EBEBE7
:10177000FBE00C94182F8B01FB0185811F928F9346
:1017800081811F928F9380811F928F938FE693E0C8
:101790009F938F9358DDF8012181808190E036E09E
:1017A000239F800D911D1124880F991F880F991F69
:1017B00060E08E519B4F0E948D1B8DB79EB708969F
:1017C0000FB6F8949EBF0FBE8DBF81E0E4E00C948D
:1017D000342F60E088E693E00E948D1B0E9409226E
:1017E00081FF13C082E693E060E00E948D1B809130
:1017F000FC019091FD0163D1813050F081F060E0F7
:101800008AE493E00E949E1B08C08CE593E0ECCF35
:1018100060E086E593E00E948D1B80E0089560E023
:1018200080E593E0F8CF60E072E08AE491E00E9406
:10183000A11B83E008958230E0F46C30D0F447308F
:10184000C0F450E097E0699F400D511D112490E0D5
:10185000919581959109847590E0FC01E40FF51F45
:10186000EE0FFF1FEE56FC4F85919591282F822F8A
:10187000089521E090E0FBCFDECF089581E0089548
:1018800081E00895FBCF089581E0089581E00895F7
:101890006CCF089508950895FDCF08950895089593
:1018A000A6E0B0E0E6E5FCE00C94192F49835A83EA
:1018B0009E833091CF0189819A81311117C03E8179
:1018C000311589F0211579F07ED5182F682F89817F
:1018D0009A8158D569817A81812F0E94E6172696D0
:1018E000E3E00C94352F5FD5182FF4CF6CD56981C8
:1018F0007A81F3CFFC01262F40815181628173816F
:1019000084819581CDCFCF93DF93EC0161E0F2DF4D
:10191000BE01B6DF811529F061E0CE01EBDFBE012B
:10192000B1DFDF91CF9108950F931F93CF93DF9392
:10193000EC0160E0DFDF8C01BE01ADDFBE01C8015C
:10194000ABDFDF91CF911F910F91089521E030E03F
:1019500002C0220F331F8A95E2F7C9014EC4CF930C
:10196000C82F81E090E00C2E02C0880F991F0A94C6
:10197000E2F70E9415168C2FE9DFCF91089581E0E0
:10198000089581E00895FBCF0895CF93C82FE4D345
:101990008C2FF7DF8C2FF7DF8FEF94E32CE0815053
:1019A00090402040E1F700C00000CF91089581E011
:1019B000ECDF0C94712580E0E8DF0C9482250F9316
:1019C0001F93CF93DF938C0161E094DFEC01B801AA
:1019D0005DDF811509F444C0B801CE0159DF8115DE
:1019E00009F43EC0B801CE010E94AE218115C1F1BB
:1019F000B801CE010E94871D811591F1B801CE0179
:101A00000E945F1D811561F1B801CE010E94E518A9
:101A1000811531F1F8018581811581F0C3308CE7A2
:101A2000D807C9F170F4C1308CE7D807B1F1C230E2
:101A30008CE7D807D9F0C115DC4789F0C80124DF4D
:101A400010C0CB358CE7D80769F1CC358CE7D807C7
:101A500031F1CA35DC4791F70E94E015EFCFA7DFDF
:101A600080E0DF91CF911F910F9108959091AC028A
:101A7000892F8E7F90FF81608093AC0280FF08C029
:101A800084E997E09F938F93DEDB0F900F90E8CF70
:101A900082E897E0F7CF0E940D168DDFE1CF0E941C
:101AA000D915CCCF0E94E215C9CFF8DE0E94AE2432
:101AB00048D00C94F91C47D0F2DE0C94B224292FA4
:101AC00030E048E0911102C09C0140E0C90164E0AF
:101AD000969587956A95E1F7009711F04C5F9C0108
:101AE000C9019695879596958795009711F04E5F59
:101AF0009C01C90196958795840F08958295982F2A
:101B0000990F990F9C7C869586958373982B892FC6
:101B1000880F8A7A96959575892B089581E00895A6
:101B20000895CF93DF93C82FF9DFD82F811511F0D7
:101B30008C2FF6DF8D2FDF91CF9108950895F1CF8F
:101B4000089580E0FCCF0E94FA21F9CFCF930E9444
:101B5000FA21C82F8091CA018C17F1F0C093CA01F5
:101B60000E9441256093CB017093CC018093CD01FD
:101B70009093CE018091AC028570853059F41F920C
:101B8000CF9385EA97E09F938F935DDB0F900F9043
:101B90000F900F908C2FD3DFCF910895ADE0B0E080
:101BA000E4EDFDE00C941A2F488759876A877B87FC
:101BB0008C879D87911115D71F8286E0FE0138968C
:101BC0009E012F5F3F4FD90101900D928A95E1F759
:101BD0008D8181110CC029813A814B815C816D819D
:101BE0007E818F8149D62D96E2E00C94362FCE016E
:101BF000019689DE8111EFCFF6CFFC0124812130DF
:101C000019F48081918112C40895611521F00E9418
:101C1000E21E0C94971F0E94221FFBCFCF93C82F68
:101C2000811581F08450813A78F48C2F0E943823FA
:101C3000811521F08C2F0E94F7235ED78C2F0E94F4
:101C4000E0235AD7CF9108958C2F805E883048F4D6
:101C500081E0C1FD84E0C0FD880FC2FD8295A2D65F
:101C6000F0CF8C2F855A833030F48C2F8452990B0F
:101C70000E94C422E7CFEC2FE85AEB3150F4F0E099
:101C8000EE0FFF1FEF5BFE4F808191810E94EB22E0
:101C9000D9CF8C2F8D5C8331A8F661E08C2FB5DF16
:101CA000D1CF811559F1982F9450913A18F40E9490
:101CB000F72322C7982F905E983050F4982F81E038
:101CC00091FD84E090FD880F92FD829571D6F1CF51
:101CD000982F955A933020F480E090E00C94C42221
:101CE000982F985A9B3120F480E090E00C94EB22DE
:101CF000982F9D5C933110F460E087CF08951F9377
:101D0000CF93DF93182FEB0189DF209731F4812FD8
:101D1000C8DFDF91CF911F9108958FE99FE0019770
:101D2000F1F700C000002197F0CF60E570E0893343
:101D300011F060E070E0E3CF811511F033D6DCC61E
:101D40000895811511F034D6D7C60895A0E0B0E00B
:101D5000ECEAFEE00C94142F6C01D62FC72FFC0187
:101D60001581068102950F7012D6E82E8115E9F0D3
:101D7000E12E1115D1F08C2F807F803461F08D2FF2
:101D8000805E8830E0F08C2F807E803221F4D2306B
:101D9000B0F00115A1F08091010382FF10C082E034
:101DA000CFD6F5D591E08927E82EEC2FE295EF709C
:101DB000C03C78F5F0E0E356F04D0C94042FE12C94
:101DC000F4CF0C2F0F70C03110F00295007F111569
:101DD00081F0011549F08D2F805E883010F0D1110F
:101DE00005C0802FDFD588D68D2F40C0802FEBD542
:101DF000FACF8D2F56DF011561F08D2F805E883070
:101E000010F0D11103C0802FD3D502C0802FE1D5AF
:101E100073D6E11409F4B3C0B6D580FDB0C0F601A5
:101E20001582ABD51AD2C60168D1A7D524D2A7C0D6
:101E30008C2F8F70F82EC07FC03219F0F29480EF93
:101E4000F822D13038F079F1111509F438C00115B4
:101E5000C9F0CACF8091010382FD10C0111541F075
:101E6000F11419F08F2D9ED547D680E0D7DED1CF63
:101E700080E017DFF11469F28F2DC6CF111551F0F4
:101E8000013018F48F2D58DFC4CF09F0C2CF8F2D49
:101E9000BCD5BFCF0111BDCF8F2D53DF8F2DC0D546
:101EA0008F2DA5D5B6CF111521F0063008F0B1CF92
:101EB000E9CF053008F0ADCF8F2D43DFAACF011554
:101EC000D9F3D93349F48FEF97EE23E08150904056
:101ED0002040E1F700C000008D2FE3DE9ACF8C2F69
:101EE000869586958370813060F009F092CF8D2FB2
:101EF0009C2F9370111102C080E090E00E94EB22B1
:101F000088CF8D2F9C2F9370111102C080E090E03C
:101F10000E94C4227ECF612F8D2F77DE7ACF8C2F47
:101F20008370C1F5111128C04D2F42954695477019
:101F3000440F440F2D2F2F7030E0042E02C0220FCB
:101F4000331F0A94E2F780E090E0D4FF09C08FE0ED
:101F500090E002C0880F991F4A95E2F7809590950E
:101F6000C695C695C370822B932BC23079F0C330CF
:101F700079F0C13049F04AD10E94FA21E0DDCDB7B5
:101F8000DEB7E8E00C94302F3AD1F6CF46D1F4CF4B
:101F900034D1F2CF111559F1C0FFEECF4D2F42953C
:101FA00046954770440F440F2D2F2F7030E0042EBC
:101FB00002C0220F331F0A94E2F780E090E0D4FFC2
:101FC00009C08FE090E002C0880F991F4A95E2F7A0
:101FD00080959095C695C695C370822B932BC23081
:101FE00061F0C33061F0C13031F06AD1C5CF8230C9
:101FF00008F4C2CFD3CF5DD1BFCF69D1BDCF1AD145
:10200000BBCFCF70111529F08C2F27D18D2F94DEE7
:10201000B3CF8D2F96DE8C2F2ED1AECFD23F31F1A4
:1020200068F4D03FC1F0D13F89F0111509F43EC0EA
:10203000011509F438C08D2FF1DD9ECFD33FE1F0BB
:10204000D43F99F78091010382FD1EC08C2F8F71C0
:10205000111511F30FC0111539F0053008F08CCFB0
:102060008C2F8F7118D188CF0630F8CF8C2F8F71BD
:102070001111D2CFF2D080CF111521F08C2F8F719A
:10208000E3D07ACFDED078CF111529F063E08C2F22
:102090008F713FD571CF81E053D5023008F46CCFFA
:1020A00082E04ED569CF8C2F8F71E4CF011571F08E
:1020B000D93349F48FEF97EE23E0815090402040D0
:1020C000E1F700C000008D2FECDD56CF8C2F8F7113
:1020D000A3CF0F931F93CF93DF93EC016881798196
:1020E0008D81ADD18C01FAD087D0B801CE012EDE22
:1020F000DF91CF911F910F910895CF93DF93EC0162
:102100008C81811581F0CE015ADC81110FC03FD442
:10211000811549F08D81811531F08091010382FF95
:1021200002C082E00DD5DF91CF910895CE01D1DFBD
:10213000CE01FADBF8CF80E090E00E94C42280E07C
:1021400090E00E94EB224DD4D7D40E944F200C94F3
:10215000971F0E940E24EFCF33D4FBCF282F9295E8
:102160009F70963099F060F4925F9F70923030F4D7
:10217000203FB1F038F481E0283E38F080E0089547
:102180009A5FF3CF81E0243FC9F7089591E0813F42
:1021900009F090E081E0283E08F080E0892B089566
:1021A00081E00895FC012481211521F08081918135
:1021B0003DD1D4CF80E00895A6E0B0E0E2EEF0E1BA
:1021C0000C941A2F2696E2E00C94362FA7E0B0E08C
:1021D000ECEEF0E10C941A2F2796E2E00C94362FE7
:1021E0000895FECF0895FDCF0895FADFFCDF8093B8
:1021F000FE019093FF0108950895F7CF089520916F
:10220000FE013091FF01822B932BEFCF2091FE0135
:102210003091FF0182239323E8CF2091FE0130917A
:10222000FF0182279327E1CFDBCF0895FDCF0895EB
:10223000D7CF0895FDDFFADF8093FC019093FD0175
:10224000089580E090E0F6CF21E030E002C0220F58
:10225000331F8A95E2F7C901EDCF21E030E002C0DB
:10226000220F331F8A95E2F78091FC019091FD01C6
:10227000822B932BDFCF21E030E002C0220F331FEF
:102280008A95E2F7209530958091FC019091FD01AF
:1022900082239323CFCF21E030E002C0220F331FEF
:1022A0008A95E2F78091FC019091FD0182279327A6
:1022B000C1CF2091FC013091FD01822B932BBACF2D
:1022C0002091FC013091FD0182239323B3CF209113
:1022D000FC013091FD0182279327ACCF0895CF9365
:1022E000C1E061FDC4E060FDCC0F62FDC29593E0EA
:1022F000769567959A95E1F7660F771F660F771FBA
:10230000460F571FFA0140E050E090E06191DF0175
:102310009C01042E02C0369527950A94E2F7269573
:10232000220B26272C2326272E934F5F5F4F443006
:10233000510561F7CF910895A82FA77023E09695D6
:1023400087952A95E1F7880F991F880F991F680FC5
:10235000791FFB0140E050E080E0219130E00A2E3F
:1023600002C0369527950A94E2F72170042E01C029
:10237000220F0A94EAF7822B4F5F5F4F44305105DA
:1023800061F70895262F9C3068F4873058F4682F41
:1023900070E087E0989F600D711D112440ED51E0C1
:1023A000822F9DCF0895292F9C3058F4873048F410
:1023B00090E060ED71E037E0239F800D911D1124C6
:1023C000BBCF80E00895CF92DF92FF920F931F93CF
:1023D000CF93DF936C010091FC011091FD0180917E
:1023E000FE019091FF01082B192BCFE0D0E081E096
:1023F00090E00C2E02C0880F991F0A94E2F7802308
:102400009123892B61F4219790F7F12C8F2DDF9187
:10241000CF911F910F91FF90DF90CF900895FC2EE8
:10242000B6018C2FDED5019771F3F0CFCF93DF93F8
:10243000EC01C9DFBE01D5D5DF91CF9108950F938F
:102440001F93CF938B019091CF01911531F0CB0168
:10245000EDDFCF911F910F910895811551F0CB01C0
:10246000B2DFC82F682FC8018DDFB8018C2FB9D516
:10247000F0CFCB0198DFC82FF8CF0F931F930091B7
:10248000000280910102801303C01F910F910895F3
:1024900087E0089FF0011124EE5FFD4F208131811C
:1024A0004281538164817581868190DE0F5F1F4F69
:1024B0000770E7CF20913A0230913B0240913C02F5
:1024C00050913D0260913E0270913F028091400226
:1024D0007DCE80914002803170F480913F02811561
:1024E00051F0E09100022091010230913B024091B5
:1024F0003A022E1301C00895BF0187E0E89FF00162
:102500001124DF01AE5FBD4F14968C911497811595
:1025100049F111968C911197831324C08C918413E7
:1025200021C015968C91159781111CC012968D9122
:102530009D91A0913C02B0913D028A1B9B0B883C6F
:10254000910580F4809140028F70806180934002F9
:10255000E85FFD4F80818F70806180838AE392E025
:10256000CCDD8BCF6F5F7F4FFB01E770C2CFE09177
:10257000000290910102E91302C080E008959F01DA
:1025800057E0E59FF0011124EE5FFD4F5181561396
:1025900006C05081581303C05581541305C02F5FE6
:1025A0003F4FF901E770E7CF81E008958F929F9246
:1025B000AF92BF92DF92EF92FF920F931F93CF9350
:1025C000DF93CDB7DEB72D970FB6F894DEBF0FBE01
:1025D000CDBF8C0186E0F801DE01189601900D92C6
:1025E0008A95E1F7F801F58084819AE3892E92E0DB
:1025F000992E90913E02911117C0811509F4EFC0F8
:10260000F11409F42EC1C801CDDD811509F429C1E9
:1026100087E0F801D40101900D928A95E1F7C40199
:10262000ECDA57DF47DFDBC0E080A280B380D090D8
:102630003F0220913C0230913D02A501421B530B09
:10264000D11409F4CFC0483C510508F09EC0811553
:1026500009F4C5C090913B02918080914002803185
:1026600008F065C0991226C090913A029E1122C0CE
:10267000F11057C08F708061809340021BDF8AE3A6
:1026800092E03BDD80914002F8018683F12C8F2D92
:102690002D960FB6F894DEBF0FBECDBFDF91CF9160
:1026A0001F910F91FF90EF90DF90BF90AF909F90A0
:1026B0008F900895F11035C040E0692D8E2D57DFC1
:1026C00040E0692D8E2D53DFF82E8111DFCF8885F4
:1026D0009985ACDE292F22952F70903450F49F708D
:1026E000223078F0911591F0F8019681903170F4D4
:1026F000CECF2A5F2F70223070F0C801FEDCFD2C97
:10270000C6CF911519F0811509F4C1CF805E8830CC
:1027100008F4BDCFF2CF803F08F4B9CF815F83309A
:10272000F7CF80914002816080934002AFCF991231
:1027300007C090913A029E1103C0F11409F473C0CE
:10274000C80130DD811509F48CC0F11409F489C089
:1027500080914002803280F020913A0230913B0219
:1027600029833A83AB82BC8290913E029D831E8274
:102770008F83CE010196C1DC87E0F801AAE3B2E0C5
:1027800001900D928A95E1F74CCF909140029031E3
:1027900088F4488559856A857B858C859D850CDD07
:1027A0008AE392E0AADCF40187E011928A95E9F7C6
:1027B00081DE6CCF811599F020913B028181281335
:1027C000BFCF80913A028E11BBCFF110B9CF968363
:1027D000C80193DCF40187E011928A95E9F7FF24A0
:1027E000F39455CF483C510508F03EC08115B9F32C
:1027F000F114B9F190913B028181981329C0809125
:102800003A028E1125C08091400280FD18C08031AF
:10281000B0F08683807F803F39F08681982F907F4B
:10282000905F8F70892B8683C80167DC87E0F80191
:10283000AAE3B2E001900D928A95E1F7F3CE87E02A
:10284000F801AAE3B2E001900D928A95E1F7C7CFB3
:10285000C801A8DC811190CF8091400281608093F3
:102860004002C8014ADCBBCF488559856A857B8513
:102870008C859D85A1DC97CFAEE0B0E0E2E4F4E189
:102880000C94192F288739874A875B876C877D8747
:102890008E87CE0108968ADE6C85811599F06115C8
:1028A00039F0288539854A855B857D858E858EDC66
:1028B000809100029091010289133DC02E96E3E0C1
:1028C0000C94352F87E09E01285F3F4FF901275078
:1028D0003109D90101900D928A95E1F7611541F313
:1028E000A09101028A2F90E08395877090E0AC015F
:1028F000209100022417150691F097E09A9FD001CD
:102900001124AE5FBD4F9E012F5F3F4FF901019033
:102910000D929A95E1F740930102AFDDC9CF1CDC1F
:102920001092010210920002EAE3F2E087E01192B5
:102930008A95E9F7BDCF17E0189FC00111248E5F7B
:102940009D4F34DE811509F4B9CFE09100021E9F3E
:10295000F0011124EE5FFD4F2081318142815381CE
:1029600064817581868132DC809100029091010240
:1029700001968770809300029BCF809169028695B3
:102980008695869508958091690287700895909143
:102990006902977081E0911101C080E008958091F3
:1029A0009502089590919502982B90939502089521
:1029B0008095982F809195028923809395020895A0
:1029C00010929502089590919402982B90939402FE
:1029D00008958095982F8091940289238093940282
:1029E00008951092940208950895FECF089590914D
:1029F0006A02292F282329F08095892380936A026F
:102A0000F4CF08950895FECF089590916B02292F79
:102A10002823281721F0982B90936B02F4CF089568
:102A200090916B02292F282329F080958923809388
:102A30006B02E9CF089580916B02811521F010920D
:102A40006B0280E0E0CF0895CF93C0919502809112
:102A50009402C82B80916B02811529F0C82B0E942B
:102A600012238111E8DF8C2FCF910895CF93DF934C
:102A7000C0910F01D0911001E7DF8883C0910F0151
:102A8000D091100148E050E061E672E0CE010E9472
:102A90004A2F892B59F088E0FE01A1E6B2E00190AF
:102AA0000D928A95E1F7CE010E940B22DF91CF9122
:102AB0000895CF93DF93C0910D01D0910E01C4DF33
:102AC0008983C0910D01D0910E0140E250E061E494
:102AD00072E0CE010E944A2F892B59F080E2FE015C
:102AE000A1E4B2E001900D928A95E1F7CE010E9437
:102AF0005B22DF91CF9108950E94F321811529F087
:102B00008091000387FF01C0D4CFB0CF0895FECFDE
:102B100008959091010392FF0EC0982F990F990F7D
:102B2000990F962B9093690298DB809169028695A4
:102B300086958695ECCF91CB1092690280E0E7CF25
:102B4000909169028095892380936902282F2770CC
:102B500059F4891749F09091010392FF05C08695B9
:102B60008695869588DBE8CF0895CF93C82F80910E
:102B7000010382FB992790F99C17C9F0C0FB82F9E9
:102B80008093010380E093E054D082E0D9DF80910C
:102B9000AC0280FF0CC01F92CF9385EB97E09F9310
:102BA0008F930E9423090F900F900F900F90CF9159
:102BB000089580910103002482FF0394802DD5CFD6
:102BC00081E0D3CF80E0D1CF80E090E0BC015CC356
:102BD00080E090E0BC0152D3F7CFA3E0B0E0E3EF98
:102BE000F5E10C941A2F03D30ED31B82CE0103966A
:102BF00021D381E090E08093FE011092FF0126D363
:102C0000198284E18A83CE01019631D3E1DF2396D4
:102C1000E2E00C94362FE1CF0895FBC20895E8C29C
:102C20000895FDC208950CC3089510C3089513C3F9
:102C300008951DC308952EC30895A6E0B0E0E3E211
:102C4000F6E10C94182F0E9435258C018091960294
:102C5000909197028017910779F019821A820E9449
:102C60003525BC0149815A8180E090E00E94CE0D5B
:102C700000939602109397022696E4E00C94342F6A
:102C80000E9441256093A8027093A9028093AA0232
:102C90009093AB026093A4027093A5028093A60266
:102CA0009093A702089508950895FDCF089508957B
:102CB000FEDFFBCF0895FECF08950895FEDFFBCF22
:102CC00082E699E2B4D3F0DFF3CF81E0089581E0AA
:102CD0000895FBCF0895089508950895FCDFFCDF63
:102CE000FCCF9DDF811101C096DF8CEA92E099DF75
:102CF00080E093E09CDFE1D696DF7FDA8091FC01F3
:102D00009091FD0193CA0E942C2520D3EADF0E94F6
:102D10009E0D80E0D4D3D2CFA6E0B0E0E2E9F6E1A8
:102D20000C94122FD4DF81110AC087DF89D60E944C
:102D300070200E94A60D2696EAE00C942E2F17D341
:102D400088E9A82E82E0B82E750110E0F701008115
:102D5000812FABD21F5F1C3009F440C09FEFE91AEE
:102D6000F90A081799F38091AC0281FDA4D2B1DF72
:102D7000C82E10E0812F99D2082FF50181915F01B3
:102D8000081729F18027D82EEE24E394F12C8E2DFC
:102D90008D21B1F0C114A1F0F9821A830E9435256A
:102DA0008B839C8381E08D8391E08E2D802309F4B9
:102DB00090E049815A816B817C818D810E94CE0D8A
:102DC000F394EE0C8F2D873011F7F50102931F5FFE
:102DD0001C3081F655DF34D6F3D4A9CF0813C3CF06
:102DE000A4CF0F931F93CF93DF93FDD0EC01D23587
:102DF00008F050C0D03508F0C8C0C03ED10530F54D
:102E0000CD3CD10508F09DC0C83AD10578F4C53A4B
:102E1000D10508F093C0C130D105B1F1CE010497BE
:102E2000813A910588F1C0E0D0E02EC0CE01885AE9
:102E300091094B97C0F7C85AD0E0CC0FDD1FC95895
:102E4000DE4F0990D881C02DD4641EC0D034A8F4C0
:102E5000D03208F0ADC0C83ED105B0F0CE019150DF
:102E60009F3108F78D2F62D1082F8C2F90E0BBD0B7
:102E7000D02FDF71C82FD92B07C08C2F90E0B3D093
:102E8000DF70C82FD92BD06ACE01DF91CF911F916F
:102E90000F910895C03882E5D807B8F5C03682E5AD
:102EA000D80708F056C0C03482E5D807C8F4C0324D
:102EB00082E5D80708F047C08C2F8695869520E2DA
:102EC000829FC0011124C37021E030E002C0220FB4
:102ED000331FCA95E2F7E901C82BD92BDD68D4CF9F
:102EE0008C2F86958695877020E2829FC0011124E1
:102EF000C37021E030E002C0220F331FCA95E2F711
:102F0000E901C82BD92BDC68BFCFC03C82E5D807CC
:102F100050F48C2F8F71C03AD24580F5982F84EFF2
:102F2000906AEC01B1CFCE01805C9245809708F0A9
:102F30007ACFDC2FDF71C0EFD06AA6CFA497D06420
:102F4000A3CFD065A1CF8C2F8F71D82FC1EFD06ABE
:102F50009BCF8C2F86958695877020E2829FC0013B
:102F60001124C37021E030E002C0220F331FCA9544
:102F7000E2F7E901C82BD92BDA6886CFD7D0982F92
:102F800080E09F71EC01D0627FCF8C2F8F71CED00B
:102F900053E0CC0FDD1F5A95E1F7DF70282F84FF37
:102FA00004C090E1899F90011124C22FD0696CCF99
:102FB0008D2F8F71BBD0082F8C2F90E014D0302F25
:102FC0003F71282F392B3062E9015ECF462F7C30CC
:102FD00028F4673018F4672F0C943C0C80E090E0E4
:102FE0000895F4DFFECE803E9105D1F1C8F481331F
:102FF000910509F481C048F48932910509F471C042
:103000008A32910509F47FC0089589339105E1F072
:1030100082389105C9F08533910509F45DC00895A2
:10302000843E9105D1F148F4823E910531F1833E11
:10303000910541F181EE90E00895863E9105C1F140
:10304000873E9105F1F1089520910003237009F066
:1030500064C02091010323FF14C089E290E0089529
:103060002091000320FD45C03091010330FF09C0CD
:1030700024FD24C083EE90E008952091000322FDFA
:10308000F7CF08952091000322FD44C03091010341
:1030900030FD43C024FFF5CF11C02091010321FF73
:1030A000F0CF8091000384FD09C087EE90E0089581
:1030B0002091000323FFE5CF24FFF7CF80E090E0CD
:1030C00008952091000323FD2BC03091010331FFAF
:1030D000E1CF84EE90E008952091000325FFD1CF49
:1030E000BCCF2091000325FD1EC02091010323FFCA
:1030F000C8CF89E390E008952091000326FFC1CF57
:103100008AE290E008952091000326FFBACF81E380
:1031100090E0089582EE90E0089580EE90E00895AA
:1031200086EE90E0089585E390E008959091000385
:1031300092FF10C041E0282F2471243009F040E0B4
:1031400031E0282F2871283009F030E0431711F0C2
:103150002CE0822793FF10C041E0282F24712431F6
:1031600009F040E031E0282F2871283109F030E0E3
:10317000431711F02CE082273091010330FF10C07B
:1031800051E0282F2171213009F050E041E0282F33
:103190002871283009F040E0541711F029E0822707
:1031A00031FF10C041E0282F2171213109F040E0AA
:1031B00031E0282F2871283109F030E0431711F051
:1031C00029E0822794FD877E0895CF939C01205E9D
:1031D0003245C1E02032310538F4FB01C581C1110F
:1031E00003C08F710E94AF0C8C2FCF91089508956A
:1031F00080E090E00E94682F9C0181E0233E3E4FDA
:1032000009F080E0089563EE7EEF80E090E00C949A
:10321000872F6FEF7FEF80E090E00C94872FCF93A4
:10322000DF93EC0182E090E00E94602F8883DF91C1
:10323000CF910895FC01608182E090E00C946D2FA5
:1032400083E090E00E94602F90E00895682F83E073
:1032500090E00C946D2FCF93DF93EC0184E090E02D
:103260000E94682F88839983DF91CF910895FC0194
:103270006081718184E090E00C94872FAB01BC01E8
:103280008FE090E00C947F2FAB01BC0183E190E0D4
:103290000C947F2F682F8EE090E00C946D2F089592
:1032A000FECF08950895FECF0895E82FF0E0E25F85
:1032B000FC4F80810895A0E0B0E0E1E6F9E10C94D4
:1032C000142F89ED97E09F938F930E9423098EE03E
:1032D000C82E83E0D82E0F900F90E12CF12C0CEC2F
:1032E00017E0FF92EF9284ED97E09F938F930E94F7
:1032F000230981ED97E09F938F930E942309F601A4
:1033000081916F010E947E0D1F928F931F930F93E7
:103310000E9423098AEC97E09F938F930E942309D0
:103320008FEFE81AF80A8DB79EB70C960FB6F8948F
:103330009EBF0FBE8DBF8CE0E816F10491F6E8E069
:103340000C94302F80EA8A95F1F708950E94710A53
:10335000E2E0F3E08CE011928A95E9F7EEE0F3E029
:103360008CE011928A95E9F78CE012D099CFCF9337
:1033700082E093E00E94B40A282F4CE06EE073E0F4
:1033800082E093E006D0C82F8EDF8C2FCF91089576
:103390000895A0E0B0E0EFECF9E10C94142F7C016B
:1033A0006B01042FC22F211579F081E08093AF02C9
:1033B0000E9435258093AD029093AE0280E0CDB798
:1033C000DEB7E8E00C94302FD091AF02D115B1F305
:1033D0008091AD029091AE020E94C6240F9770F3C7
:1033E00010E0A801B701C6010E944A2F892B31F0D5
:1033F000A801B701C6010E94572FCD2F1092AF022E
:103400008C2FDDCF89CC08950E94CF240E94C32940
:1034100057DC0E94DB2977DC0E94E4290E94E7291F
:10342000F1DF0E94092A0E94062858DCF7CF80931A
:10343000C4019093C5010895AB0124E630E0BC01BE
:1034400088E70E944D269C0181E0232B09F080E053
:103450000895AB0124E630E0BC0188E70E94A7266E
:103460009C0181E0232B09F080E008950F931F93C6
:103470009B0104E610E0AC0160E488E70E94752738
:103480009C0181E0232B09F080E01F910F910895AA
:103490000C94DA2508950895EAE1F3E0DF0180E075
:1034A00092E01D920197E9F7E0931E05F0931F0546
:1034B0008FEF9FEF8093DB029093DC020895CF9310
:1034C000EADF0E94130C90E280FF90E88093D7021D
:1034D0009093D602DDDF6BE070E084EF98E0B9DF17
:1034E00081110CC088ED98E09F938F930E9423096F
:1034F0000F900F90C0E08C2FCF9108958091D7024C
:1035000065E070E081FD08C083ED98E0A2DF8111E5
:103510000BC08DEA98E0E8CF88EA98E09ADF811145
:1035200003C080E998E0E0CF6DE070E083E898E0C8
:1035300090DFC82F8CE698E0C115B1F20E944125BA
:10354000DC01CB01805A9541AF4FBF4F80931A05E4
:1035500090931B05A0931C05B0931D059DDF81E092
:103560008093DA028093D9021092D802C4CF2091BE
:10357000D60236E0839FC0011124269F800D911D45
:103580001124923014F080E090E0865E9C4F80938E
:103590001E0590931F05089520911E0530911F056B
:1035A000245133404091D602642F70E0C9010E943B
:1035B000DD2E481B463010F4240F311D323010F040
:1035C00020E030E0265E3C4F20931E0530931F051F
:1035D00008951F93CF93DF93162F8A3031F481E043
:1035E0006ED0DF91CF911F9108958D3011F480E05E
:1035F000F7CFC0911E05D0911F0596E0FE01A0EB0C
:10360000B2E001900D929A95E1F7803EA8F086E035
:1036100019928A95E9F711111BC0C0911E05D0912E
:103620001F0546E050E0BE0180EB92E00E944A2F69
:10363000892BE1F4B1DFD5CF96E0899FB001112449
:103640006150774F46E050E0CE010E94412FE3CF1A
:10365000E0911E05F0911F059F012A5F3F4F2E1735
:103660003F07D9F2808180958193F9CFCA51D34029
:10367000CE0125E0969587952A95E1F721E030E087
:10368000A90102C0440F551F8A95E2F7CA01409173
:10369000DB025091DC02842B952B259645E0D695D4
:1036A000C7954A95E1F702C0220F331FCA95E2F78A
:1036B000822B932B8093DB029093DC02BBCFCF93C2
:1036C000382FE0911E05F0911F05EA51F34020913B
:1036D000D602622F70E0CF010E94DD2E281B822FC0
:1036E000311569F066E00E94D12EC82FC11102C0C9
:1036F000CF910895C15060E080E26BDFF7CF8E0F6D
:103700009F2F911D923010F080E090E0865E9C4FDC
:1037100080931E0590931F05EBCF1F93CF93DF93EC
:10372000EC01162FFE018491811104C0DF91CF912D
:103730001F910895612F4DDF2196F4CFEEDF81E0D8
:10374000BECF0F931F93CF93DF93A0911E05B0912F
:103750001F059D012A513340620F731F613042E003
:10376000740710F060E072E04091DB025091DC02DF
:10377000FC0101E010E02617370748F04093DB0218
:103780005093DC02DF91CF911F910F9108958491A6
:103790009D91981789F0ED018A93C901C5E096952E
:1037A0008795CA95E1F7E80102C0CC0FDD1F8A9525
:1037B000E2F7CE014C2B592B2F5F3F4F3196DBCFD9
:1037C000CF93C091DA02C11105C0C091D9028C2FEC
:1037D000CF9108950E944125DC01CB01805A95418B
:1037E000AF4FBF4F80931A0590931B05A0931C0504
:1037F000B0931D058091D9028111E9CF62E070E09C
:1038000083E198E026DE81110BC08FEF97E09F9354
:103810008F930E942309C091D9020F900F90D7CFA8
:1038200081E08093D902D3CFA0E0B0E0EAE1FCE1EF
:103830000C940B2F382E8091DB029091DC02892BA7
:1038400009F451C08091DA02811509F44CC08091CD
:10385000D802811148C0B4DF00E010E03801639461
:103860002091DB023091DC0221153105E1F10115D7
:1038700021F0311002C037C01F5F812F90E043015B
:10388000012E02C0880C991C0A94E2F7A40142237D
:103890005323452B89F32091D70220FD29C096950B
:1038A000879596958795482F282F912F9295990F58
:1038B0009076392F315E842F9093130180931601F7
:1038C000309314012093170167E070E081E191E0EB
:1038D000B3DD811116C089E498E09F938F930E9415
:1038E00023090F900F90CDB7DEB7E1E10C94272F9D
:1038F000912F990F990F990F392F395F80E023E0AD
:10390000DBCF20E2129FC00111242091D70220FDBD
:103910000AC060E270E0865E9C4FA8DD81115BC04A
:1039200080E398E0DACFE6EBF2E020E211922A950C
:10393000E9F7A1EBB1E06DEA71E0ED91EB012991BE
:10394000BE01422F480F592F511D2A01F0E0EA54C1
:10395000FD4F20E030E047E0B42EB21AD62C022E04
:1039600001C0DD0C0A94EAF7E201C65EDC4FE12CEF
:10397000F990FD204B2D4E194770C42E50E0AF2C0E
:10398000042E01C0AA0C0A94EAF7519541955109F9
:10399000477001C0F6944A95EAF7FA2840814F290A
:1039A0004083E3944E2D483019F72F5F3F4F3196F7
:1039B0002830310581F625EB31E02A173B0709F065
:1039C000BCCF60E270E086EB92E050DD811103C075
:1039D00085E198E082CF0F5F809490948091DB0224
:1039E0009091DC02882199218093DB029093DC0284
:1039F00037CFCF93C091DA028091D902C11106C0AE
:103A000091E08927C82F8C2FCF9108958115D9F384
:103A100062E070E08DEF97E01CDD81110BC088EE55
:103A200097E09F938F930E942309C091D9020F9032
:103A30000F90E9CF1092D902E6CF0C94E90B0895CC
:103A40008091DA02811501F160E080E090DDF5DF20
:103A500080E0EADE8091D9028115B1F00E94412513
:103A600020911A0530911B0540911C0550911D05B0
:103A7000DC01CB01821B930BA40BB50B8F3F9F4F37
:103A8000AF4FBF4708F4B5CF0895C7C8089580E089
:103A90000CDC817008956BDC8FEF96E721E081509C
:103AA00090402040E1F700C0000061DCF0DF8115AC
:103AB00019F0EBDF0C9471250895EDCF0895CF93A5
:103AC000DF93EB0186319C4701F50E94CF149D8165
:103AD000911591F08A7A91E0811101C090E0909364
:103AE000DD02811539F085E36BD606D880E0DF91E1
:103AF000CF91089589E2F8CF8091DD02811519F008
:103B000085E375D6F2CF89E2FCCF81E0F0CFCF9389
:103B1000DF93EC01FB018581811509F4CAC09E0188
:103B200030572332310508F0AAC080E093E07FD8F7
:103B3000FE01E150F047E232F10520F4E755F04D87
:103B40000C94042F8091000381608093000390C047
:103B5000809101038860809301038AC080910003F3
:103B60008260F3CF809100038460EFCF80910003E7
:103B70008860EBCF809101038160EDCF80910103DC
:103B80008260E9CF809100038061DFCF80910003E4
:103B90008062DBCF809100038064D7CF0E94AC109D
:103BA000809100038068D1CF809100038C60CDCFDD
:103BB000809101038360CFCF809100038E7FC5CFBA
:103BC00080910103877FC7CF809100038D7FBDCF98
:103BD000809100038B7FB9CF80910003877FB5CFA1
:103BE000809101038E7FB7CF809101038D7FB3CF8A
:103BF000809100038F7EA9CF809100038F7DA5CF98
:103C0000809100038F7BA1CF0E94AC1080910003B4
:103C10008F779BCF80910003837F97CF80910103A3
:103C20008C7F99CF90910003892F8B7F92FF8460C6
:103C3000877F92FF886089CF80910103982F9095AC
:103C400090FB80F990FB81F986CF90910003892F3A
:103C50008F7B96FF806479CF0E94AC109091000317
:103C6000892F97FB87F9805870CF81E00E941B163F
:103C700080E093E00E9419160E94AC1080E0DF9172
:103C8000CF91089580E0F2CF90910003892F8F7E2D
:103C900094FF80615ACF90910003892F8E7F90FF0F
:103CA000816053CF90910103892F877F93FF8860B4
:103CB00052CF81E0E4CF382F25EB3203C00111242D
:103CC00097FF04C080589109892F089580589F4F0D
:103CD000FBCF8091E40280FF0DC060911D0170E078
:103CE000660F771F6038710588F56115710581F1E0
:103CF000862F089581FF07C060911D0184E0689FB1
:103D0000B0011124EFCF82FF04C060911D0188E053
:103D1000F6CF9091E3029115B9F060911C0180916A
:103D20001D01961728F098E0899FB0011124DACF81
:103D3000899FC001112423E0880F991F2A95E1F77C
:103D400070E00E94F12ECECF68E0D2CF8FE70895C9
:103D500081E008958091E40280FF0CC06091190118
:103D600070E075956795759567956115710541F1D9
:103D7000862F089581FF06C06091190170E0759546
:103D80006795F3CF6091190182FD0BC09091E2021B
:103D90009115A1F06091180180911901961738F0E2
:103DA000682F70E06038710500F38FE70895899FF0
:103DB000C001112470E00E94F12EF4CF61E0D8CF51
:103DC00081E00895E82FED5CE33198F5F0E0E553EC
:103DD000F04D0C94042F7DDF81958093E8020895C7
:103DE00078DFFBCF76DF81958093E702089571DF5E
:103DF000FBCFB0DF8093E9020895ACDF8195FACF65
:103E0000A9DF81958093EA020895A4DFFBCF815D4D
:103E1000990B21E001C0220F8A95EAF78091E60212
:103E2000822B8093E60208958091E4028160809362
:103E3000E40208958091E4028260F9CF8091E40267
:103E40008460F5CF4091E7028D3C59F48091E802FF
:103E500087FF0DC01092E802411559F41092E30259
:103E600008C08E3C81F48091E80218169CF341153D
:103E700081F08091E9029091EA02892B09F056C005
:103E80001092E20208958F3C41F447FFF0CF109268
:103E9000E7028091E8028115E0CF803D19F4141605
:103EA000B4F3E5CF9091E902893D29F41916FCF6A7
:103EB0001092E902DCCF8A3D19F497FFD8CFF8CFF2
:103EC0009091EA028B3D29F497FFD1CF1092EA023C
:103ED000CECF8C3D19F41916CCF3C9CF982F915D34
:103EE000983078F4815D990B21E001C0220F8A950A
:103EF000EAF7822F80959091E60289238093E6026B
:103F0000B6CF8D3D31F48091E4028E7F8093E40240
:103F1000AECF8E3D21F48091E4028D7FF7CF8F3DAF
:103F200009F0A5CF8091E4028B7FF0CF0895A0E047
:103F3000B0E0EDE9FFE10C941A2F8091AC0283FF11
:103F400092C086E69EE09F938F930E942309809102
:103F5000E6021F928F9381E69EE09F938F930E94CB
:103F600023098FE59EE09F938F930E942309809100
:103F7000E702382F330F330B3F938F938CE59EE08E
:103F80009F938F930E9423098AE59EE09F938F93CE
:103F90000E9423098091E802382F330F330B3F939F
:103FA0008F9387E59EE09F938F930E94230985E579
:103FB0009EE09F938F930E9423098091E902382FFE
:103FC000330F330B3F938F9382E59EE09F938F9344
:103FD0000E94230980E59EE09F938F930E9423090E
:103FE0008091EA02382F330F330B3F938F938DE488
:103FF0009EE09F938F930E9423098AE49EE09F9303
:104000008F930E9423098DB79EB780960FB6F894C0
:104010009EBF0FBE8DBF8091E3021F928F9387E4F6
:104020009EE09F938F930E94230985E49EE09F93D7
:104030008F930E9423098091E4021F928F9382E460
:104040009EE09F938F930E9423098FE39EE09F93AE
:104050008F930E9423098DB79EB70C960FB6F894E4
:104060009EBF0FBE8DBF01D59C019091E70280914C
:10407000E802982B21F02093E0023093E102909126
:10408000E9028091EA02982B21F02093DE0230931E
:10409000DF0285EE92E066D2E2E00C94362FE5EE88
:1040A000F2E086E011928A95E9F71092E30210920D
:1040B000E2021092E4020895FC01828181110EC097
:1040C000838181110BC08481811108C091E08581B9
:1040D000811101C090E0892F8170089581E0FCCFAB
:1040E000A6E0B0E0E6E7F0E20C94172F86E0E5EEFC
:1040F000F2E09E012F5F3F4FD90101900D928A950A
:10410000E1F71092E7021092E8021092E902109291
:10411000EA028B819C81892B022FF32E811581F07D
:104120008091E0029091E10231D4AC019091E302E0
:104130009115A1F180911E018417150608F43BC06A
:104140008D819E81892B89F08091DE029091DF0222
:104150001DD4AC019091E202911509F45AC08091EE
:104160001A018417150608F462C0602F7F2D85EEB2
:1041700092E06CD3811104C085EE92E09DDF811145
:10418000D6DE86E0E02FFF2DA5EEB2E001900D9285
:104190008A95E1F72696E5E00C94332F20911F01D4
:1041A0008AE0289F900111242417350748F69F5F65
:1041B0009093E30202C09F3FD1F71B81111551F08C
:1041C00088DD91E011160CF09FEF899F802D11245E
:1041D0008093E7021C81111551F07BDD91E01116EF
:1041E0000CF09FEF899F802D11248093E80280912D
:1041F000E702811509F4A4CF1091E802111509F422
:104200009FCF59DD8093E702812F55DD8093E8022F
:1042100097CF20911B018AE0289F90011124241739
:10422000350708F0A2CF9F5F9093E20202C09F3F44
:10423000D1F71D81111551F08DDD91E011160CF0B3
:104240009FEF899F802D11248093E9028E81182F82
:10425000811551F07FDD91E011160CF09FEF899FE1
:10426000802D11248093EA028091E902811509F4DE
:104270007CCF9091EA02192F911509F476CF1BDDBE
:104280008093E902812F17DD8093EA026ECF0F93AE
:104290001F93CF93DF93C42FD22FFC01858181150B
:1042A000C9F04093ED02E1D38093EB029093EC02CE
:1042B0008C2F805E883048F481E0C1FD84E0C0FD31
:1042C000880FC2FD82950E949C0EDF91CF911F91B5
:1042D0000F9108951091ED02141333C08091EB02F9
:1042E0009091EC0253D3883C910558F5CD2FC05ED8
:1042F0001D17C1F0812F805E883048F481E011FDE8
:1043000084E010FD880F12FD82950E94A10EC83036
:1043100048F481E0D1FD84E0D0FD880FD2FD829584
:104320000E949C0E802F0E94950E81E0D1FD84E0BA
:10433000D0FD880FD2FD8295C83038F60E94A10EBC
:10434000C4CF8C2F805E883008F0BFCF81E0C1FDE4
:1043500084E0C0FD880FC2FD8295F0CF0F93FC0171
:10436000CB01E851FC47E730F10588F5E252F04D0A
:104370000C94042F06E221EE41EE6AE17CE787DF30
:1043800080E00F91089507E225EE45EE6BE17CE7B2
:10439000F6CF06E221EE40EE68E17CE7F0CF07E2DF
:1043A00025EE44EE69E17CE7EACF06E221EE42EE3B
:1043B0006CE17CE7E4CF07E225EE46EE6DE17CE7B9
:1043C000DECF08E221E045EE6EE17CE7D8CFFB01CD
:1043D000858181111092ED0281E0D3CF8093F202AA
:1043E0009093F302089599D2982F81E0913009F0CB
:1043F00080E00895E091F202F091F302309739F0F5
:104400000190F081E02D309711F00995089580E03A
:104410000895F0CF0895EF92FF920F931F93CF93DB
:10442000DF93EC01E091F202F091F3023097F1F1A9
:104430000280F381E02D3097C9F109958091AC029B
:1044400082FF34C080FF0DC088811F928F938EEA57
:104450009EE09F938F930E9423090F900F900F90DF
:104460000F907E0186E0E80EF11C08EA1EE08091C4
:10447000AC0280FF0BC08A811F928F931F930F9312
:104480000E9423090F900F900F900F902196CE1548
:10449000DF0569F78091AC0280FF08C086EA9EE0E4
:1044A0009F938F930E9423090F900F90CDB7DEB793
:1044B000E6E00C94322FEF92FF920F931F93CF936D
:1044C000DF93EC01E091F202F091F302309709F4EE
:1044D00044C084819581892B09F43FC086E088839C
:1044E0000480F581E02DCE0109958091AC0282FF18
:1044F00034C080FF0DC089811F928F9381E99EE0B7
:104500009F938F930E9423090F900F900F900F900D
:104510007E018EE1E80EF11C0BE81EE08091AC02FA
:1045200080FF0BC08A811F928F931F930F930E946D
:1045300023090F900F900F900F902196CE15DF0555
:1045400069F78091AC0280FF08C089E89EE09F93E4
:104550008F930E9423090F900F90CDB7DEB7E6E04E
:104560000C94322FE091F202F091F302309759F05F
:1045700026813781232B39F022E0DC012C93068041
:10458000F781E02D09950895A3E0B0E0EAECF2E2AE
:104590000C941A2F2091F0023091F102281739075C
:1045A000B1F08093F0029093F102E091F202F09169
:1045B000F302309761F00084F185E02D309739F0F7
:1045C00023E029838A839B83CE0101960995239654
:1045D000E2E00C94362FA3E0B0E0E1EFF2E20C94BD
:1045E0001A2F2091EE023091EF0228173907B1F00F
:1045F0008093EE029093EF02E091F202F091F302C9
:10460000309761F00084F185E02D309739F024E097
:1046100029838A839B83CE01019609952396E2E044
:104620000C94362FCF93DF93C0910F01D0911001DE
:10463000DADE811521F08091000387FD11C09E0113
:104640002E5F3F4F96E080E09150F90140812F5F4F
:104650003F4F41118F5F9111F7CFDF91CF910895B7
:1046600020910D0130910E012E5F3F4F9EE1EBCF67
:10467000CF93C82F811102C080E02EC0B4DE811517
:1046800021F08091000387FD0FC080910F01909170
:104690001001FC013296089620812C17F9F0319612
:1046A000E817F907C9F7E8CF8C2F86958695869588
:1046B000C03F10F7E0910D01F0910E01E80FF11DE0
:1046C000228130E0C77081E001C0880FCA95EAF707
:1046D000282381E0232B81F2CF91089581E0FCCF44
:1046E0009C01FC01329680E09FEF4081461759F013
:1046F00031969F3F19F4411101C0982F8F5F86308A
:10470000A1F79F3F09F40895290F311D97FD3A95B0
:10471000F90162830895FC013296089621912613CF
:1047200002C0DF011E92E817F907C1F70895262F8E
:10473000269526952695603F68F4820F911DFC0111
:10474000677021E001C0220F6A95EAF78281822B0F
:10475000828308958091AC0280FF0CC01F926F93FA
:1047600085EE9EE09F938F930E9423090F900F90F8
:104770000F900F900895262F269526952695603F39
:1047800070F4820F911DFC019DEF61FD97EF60FFBA
:10479000959562FD92958281892382830895809107
:1047A000AC0280FF0CC01F926F9387EC9EE09F933A
:1047B0008F930E9423090F900F900F900F900895F0
:1047C000CF93C82F10DE6C2F811559F08091000314
:1047D00087FF07C080910D0190910E01A8DFCF9156
:1047E000089580910F01909110017ADFF8CFCF9357
:1047F000C82FF9DD6C2F811559F08091000387FFD8
:1048000007C080910D0190910E01B5DFCF91089501
:1048100080910F01909110017EDFF8CFE4DD8115CA
:1048200071F08091000387FF0AC0E0910D01F091C3
:104830000E0132968EE111928A95E9F70895E09182
:104840000F01F0911001329686E0F5CFDC01FB01FB
:1048500011969C9111978181981322C012968C9188
:104860001297811519F0928189131AC013968C91B1
:104870001397811519F09381891312C015968C91A5
:104880001597811519F0958189130AC014969C918A
:10489000911521F081E02481291303C080E001C03B
:1048A00081E0817008950895FECF08958F5F809311
:1048B000230160912001709121018091220190914A
:1048C0002301F2CF83E08093230160912001709156
:1048D00021018091220190912301E6CFE7CF089535
:1048E00081E08093230160912001709121018091EA
:1048F000220190912301D8CFF3CF089591E0811147
:1049000001C090E0909322016091200170912101FB
:104910008091220190912301C7CF809122010895B7
:1049200080932101609120017091210180912201E9
:1049300090912301B9CF80912101089580932001A6
:1049400060912001709121018091220190912301B9
:10495000ABCF80912001089508950895FECF08956A
:1049600008950895F9CF0895CF93FADF0E94B719FB
:10497000F8DFC0E08C2F0E945519811105C0CF5F70
:10498000CC30C1F7CF91089581E0FCCFCF93DF9376
:10499000EC016BD08C1B9D0BDF91CF91089585B7F7
:1049A000806885BF85B7806885BF08951F921FB650
:1049B0001F9211248F939F93AF93BF938091F40222
:1049C000811113C08091200590912105A0912205AD
:1049D000B09123054196A11DB11D809320059093B0
:1049E0002105A0932205B0932305BF91AF919F911C
:1049F0008F911F901FBE1F901895809128058430BD
:104A000031F10E94550D1092F40288E190E020E40B
:104A10000FB6F894A895809360000FBE20936000B5
:104A200083B7817F846083BF83B7816083BF7894BD
:104A3000889583B78E7F83BF0FB6F894A895809131
:104A40006000886180936000109260000FBE08953E
:104A50000E94AC100C945B0D82E084BD93E095BD88
:104A60009AEF97BD80936E0008952FB7F8948091C8
:104A7000200590912105A0912205B09123052FBF1B
:104A800008952FB7F89460912005709121058091C9
:104A90002205909123052FBF089578941F921FB689
:104AA0001F9211248F939F93AF93BF938091200502
:104AB00090912105A0912205B09123050196A11D99
:104AC000B11D8093200590932105A0932205B093FA
:104AD0002305BF91AF919F918F911F901FBE1F9093
:104AE000189587E797E7809300089093010888E17D
:104AF0009AE00FB6F894A895809360000FBE90934B
:104B00006000FFCF88E19AE00FB6F894A8958093F3
:104B100060000FBE90936000FFCFEF92FF920F9363
:104B20001F93CF93DF93C82F8B011092BC0084EAB0
:104B30008093BC009ADF7C018091BC0087FF25C078
:104B40008091B900887F883029F08091B900887FF2
:104B5000803169F5C093BB0084E88093BC0085DF99
:104B6000EC018091BC0087FF1CC02091B900287F18
:104B700080E090E0283181F081E090E0203409F479
:104B800080E091958195910907C0C701FFDE081764
:104B9000190790F68EEF9FEFCDB7DEB7E6E00C94E5
:104BA000322FCE01F3DE08171907D8F6F3CF8FEFB7
:104BB0009FEFF2CF1092B9008CE08093B800089577
:104BC0000F931F93CF93DF93EB018093BB0084E897
:104BD0008093BC004ADF8C018091BC0087FF10C02D
:104BE0002091B900287F81E090E0283209F480E02C
:104BF000919581959109DF91CF911F910F91089522
:104C0000CF3FDC0749F3C801C1DEC817D90720F739
:104C10008EEF9FEFF0CF0F931F93CF93DF93EC01B5
:104C200084EC8093BC0021DF8C018091BC0087FF65
:104C300008C08091BB0090E0DF91CF911F910F9150
:104C40000895CF3FDC0789F3C801A0DEC817D90754
:104C500060F78EEF9FEFF0CF0F931F93CF93DF930B
:104C6000EC0184E88093BC0000DF8C018091BC00E3
:104C700087FF08C08091BB0090E0DF91CF911F912A
:104C80000F910895CF3FDC0789F3C8017FDEC81775
:104C9000D90760F78EEF9FEFF0CF6F927F929F92D0
:104CA000AF92BF92CF92DF92EF92FF920F931F933A
:104CB000CF93DF93B82EA62E972E6A018901D5DEF9
:104CC0003C010431110560F10F3F100769F1C80183
:104CD00064E170E00E94DD2EF62EE72E6F2D7E2D12
:104CE0008B2D1BDFEC01892B11F5EA2CF92CCE0C56
:104CF000DF1CEC14FD0411F0209711F184E980937E
:104D0000BC00CE01DF91CF911F910F91FF90EF90EA
:104D1000DF90CF90BF90AF909F907F906F9008955D
:104D2000FF24F394E12CDACF85E0F82EFBCF0F3F80
:104D30001007A1F2C3012ADE0817190778F6D5CFAC
:104D4000B801F70181917F013BDFEC01D2CF6F9277
:104D50007F929F92AF92BF92CF92DF92EF92FF929B
:104D60000F931F93CF93DF93B82EA62E972E6A0131
:104D700089017BDE3C010431110560F10F3F100712
:104D800069F1C80164E170E00E94DD2EF62EE72E85
:104D90006F2D7E2D8B2DC1DEEC01892B11F5EA2CB8
:104DA000F92CCE0CDF1CEC14FD0411F0209711F14E
:104DB00084E98093BC00CE01DF91CF911F910F91C8
:104DC000FF90EF90DF90CF90BF90AF909F907F903B
:104DD0006F900895FF24F394E12CDACF85E0F82E4C
:104DE000FBCF0F3F1007A1F2C301D0DD0817190751
:104DF00078F6D5CFF7018491B801E2DEEC018FEFB0
:104E0000E81AF80AD0CF6F927F929F92AF92BF922A
:104E1000CF92DF92EF92FF920F931F93CF93DF9386
:104E20007B015A0189018160982E1FDE3C0104310B
:104E3000110578F10F3F100781F1C80164E170E0BE
:104E4000BCD76B01B601892D68DEEC01892B41F5D9
:104E5000C12CD12C81E0A81AB108CA14DB04B0F52A
:104E6000D7FF27C084E98093BC00CE011C161D0625
:104E700014F480E090E0DF91CF911F910F91FF90AB
:104E8000EF90DF90CF90BF90AF909F907F906F900A
:104E90000895CC24C394D12CD5CF85E0C82EFBCF68
:104EA0000F3F100779F2C30171DD0817190750F69B
:104EB000CFCFC801B0DEEC0197FD04C0F701EC0DC7
:104EC000FD1D80838FEFC81AD80AC7CFD7FDCACF80
:104ED000C801C2DEEC0197FD05C0EA0CFB1CF7011E
:104EE0008083C0CFCEEFDFEFBDCFA0E0B0E0EAE738
:104EF000F7E294C7B82EA62E942E852E6901E801FC
:104F0000B4DD3C010431110500F10F3F100709F138
:104F1000C80164E170E051D7F62EE72E6F2D7E2D8B
:104F20008B2DFBDD8C01892BB9F0CF3FDC07B1F372
:104F3000C3012CDDC817D90788F784E98093BC002A
:104F4000C801CDB7DEB7EEE085C7FF24F394E12CAE
:104F5000E5CF85E0F82EFBCFBE018A2D31DE8C0136
:104F6000E92CF82CCE0CDF1CEC14FD0431F30115F8
:104F7000110519F7BE01F70181917F0121DE8C0136
:104F8000F3CF9B01BA01909128059430D9F48F702A
:104F90008093E9009FEF8091E80085FD06C085EDD4
:104FA0008A95F1F700009150B1F78091E80085FFF4
:104FB00009C040E050E0C901A0D28091E8008E779E
:104FC0008093E800089543E050E0BC0182E0D9CF2F
:104FD00046E050E0BC0182E0D4CF40E250E0BC01AA
:104FE00082E0CFCFCF93DF93EC0197DC48E050E035
:104FF000BE0181E0C6DF88E0FE01A8EFB2E00190CB
:105000000D928A95E1F7DF91CF910895089589E295
:105010009FE09F938F930E942309809127050F9013
:105020000F90811107C0F0D340D48091E2008460DA
:105030008093E200089585E29FE09F938F930E9402
:105040002309109227050F900F90089581E29FE0A9
:105050009F938F930E94230943DC81E04FDC0F90E4
:105060000F900895A0E0B0E0E7E3F8E2E3C68DE139
:105070009FE09F938F930E9423096091240581E014
:10508000611101C080E01EDC0F900F90E2E0EEC6DF
:10509000A0E0B0E0EDE4F8E2CDC689E19FE09F93A7
:1050A0008F930E9423099091280581E0943009F0A4
:1050B00080E06091240512DC0F900F90E2E0D6C6EC
:1050C0002091F6022F5F822F62E36BD6911519F0C3
:1050D0002093F60208951092F6028091F70281154E
:1050E000E9F0809128058430B9F49091E90080912D
:1050F000EC009F7080FB882787F9892B93E09093C1
:10510000E9009091EB0090FF04C09091EE0097FDB4
:1051100008C08F708093E9001092F70208951092F2
:10512000F1009091E80095FDFACF9091E80090FF92
:10513000F0CF9091E8009E779093E800EACF42E0AC
:1051400061EC81E0DDD242E261EC82E0D9D242E260
:1051500061EC83E0D5D29091280581E0943009F08C
:1051600080E060912405A2CB80912A05893081F1ED
:1051700048F4823009F496C0833009F457C0813076
:1051800041F008958A3009F480C08B3009F468C07A
:10519000089580912905813A09F047C08091E8007F
:1051A000877F8093E80080912D0590912E05892BB3
:1051B00059F060E080E090E070E0EBD18091E80091
:1051C0008B778093E800089568E088EF92E0F4CF51
:1051D00080912905813249F580912D0590912E0508
:1051E000029718F58091E800877F8093E80080910E
:1051F000E80082FF16C02091F3008091F200922F08
:10520000029731F48091F100813011F0863019F469
:105210008091F10085DB8091E8008B778093E80036
:10522000A3C2809128058111E2CF089580912905BC
:10523000813AD9F780912D0590912E05892BA9F7F8
:105240008091E800877F8093E8008091E80080FFEC
:10525000FCCF63DB8093F1008091E8008E77DECF96
:1052600080912905813209F780912D0590912E05B5
:10527000892BD9F68091E800877F8093E80074D26B
:1052800080912B053BDB0C94AC1080912905813279
:1052900061F68091E800877F8093E80065D2809175
:1052A0002C054CCB80912905813A09F0BECF809125
:1052B000E800877F8093E8008091E80080FFFCCFC2
:1052C00048DBC8CF9FB7F8941092F7029FBF909128
:1052D0002805943009F047C02091E9009091EC0036
:1052E0002F7090FB992797F9922B23E02093E900E8
:1052F0002091EB0020FF34C02091EE0027FF30C04A
:105300002091F502211521F02091E80025FF28C009
:105310001092F50226E03091E80035FF14C080932A
:10532000F1008091E80085FD27C08091E80080FFB2
:10533000FCCF8091E8008E778093E8009F70909377
:10534000E90080E0089530912805343049F4309127
:10535000EB0035FD05C0215041F481E08093F5025A
:105360009F709093E9008FEF0895EFE9FFE0319788
:10537000F1F700C00000CFCF8FB7F89421E0209361
:10538000F7028FBFDBCF84B7877F84BF0FB6F89457
:10539000A895809160008861809360001092600001
:1053A0000FBE80E890E00FB6F89480936100909370
:1053B00061000FBEA1CA28D278D2E2EEF0E080816F
:1053C000846080837894D4C484E291E007C880919B
:1053D0002805853089F48091AC0280FF08C083E005
:1053E0009FE09F938F930E9423090F900F908091CD
:1053F0002805853011F02CCB0895FFDAB5DA811538
:10540000B1F380912605811591F361D00E94AC1013
:10541000EECF08959A0140912F055091300500C0BC
:10542000492F50E043305105D1F078F44130510517
:1054300009F448C04230510571F484E590E049E434
:105440005FE0F90140835183089541325105E9F04D
:105450004232510539F180E090E040E0F2CF482F30
:1054600050E0813061F04230510561F0E5E4FFE049
:105470004115510581F7849190E0AF01E2CFEDE352
:10548000FFE0F9CFEDE2FFE0F6CF6330710518F7EA
:10549000660F771FFB01E254FE4F4081518189E086
:1054A00090E0CFCF63307105B0F6FB01EE0FFF1F28
:1054B000E854FE4F408151816B547E4FFB01808147
:1054C00090E0BFCF82E190E04DE95FE0BACF80E1AC
:1054D00089BD82E189BD09B400FEFDCF8091D8006D
:1054E0008F7D8093D8008091E00082608093E000FF
:1054F0008091E00081FDFCCF0895AF92BF92CF92E2
:10550000DF92EF92FF921F93CF93DF937C01EB0129
:105510006A0149D1182F811122C0C114D10439F078
:10552000F60180819181C81BD90BE80EF91EA12CD0
:10553000B12C2097A1F08091E80085FD20C08091DA
:10554000E8008E778093E800C114D10499F0F60149
:10555000808191818A0D9B1D8083918315E0812F2D
:10556000DF91CF911F91FF90EF90DF90CF90BF9090
:10557000AF90089518D18115F1F2182FF0CFF701EF
:1055800081917F018093F10021978FEFA81AB80ACB
:10559000D0CFFC0180912F05909130058617970799
:1055A00020F06115710561F0CB0140E0009771F4C6
:1055B00041110CC08091E80082FF36C080E0089560
:1055C0008091E8008E778093E800EECF2091280547
:1055D0002115B1F12530B1F12091E80023FD2EC055
:1055E0002091E80022FDE6CF2091E80020FFDECFE9
:1055F0004091F3002091F200342F009719F02830E9
:10560000310558F041E02830310509F040E02091A3
:10561000E8002E772093E800C9CF41914093F10034
:1056200001972F5F3F4FE9CF80912805811541F009
:10563000853041F08091E80083FFBCCF81E0089580
:1056400082E0089583E00895FC0180912F059091F8
:1056500030058617970720F06115710561F0CB01C1
:1056600040E0009771F441110CC08091E80082FF86
:1056700037C080E008958091E8008E778093E8003D
:10568000EECF209128052115B9F12530B9F12091EF
:10569000E80023FD2FC02091E80022FDE6CF2091F5
:1056A000E80020FFDECF4091F3002091F200342F7C
:1056B000009719F02830310558F041E028303105C5
:1056C00009F040E02091E8002E772093E800C9CF50
:1056D00044914093F100319601972F5F3F4FE8CFFF
:1056E00080912805811541F0853041F08091E800D6
:1056F00083FFBBCF81E0089582E0089583E00895A1
:10570000982F973028F08F708093E90081E00895FA
:105710009093E900242F762F50E0981731F0709184
:10572000EC002091ED005091F00021FD02C09F5F40
:10573000E8CF3091EB003E7F3093EB003091ED00ED
:105740003D7F3093ED003091EB0031603093EB0002
:105750007093EC002093ED005093F0002091EE0048
:1057600027FDE5CF80E008958091290587FF13C0CC
:105770008091E80082FF06C08091E8008B778093DB
:10578000E8000895809128058111F2CF0895809155
:1057900028058115D9F38091E80080FFF8CF80912A
:1057A000E8008E77ECCF2091E4003091E50095E69B
:1057B000A9012091EC00822F817020FF06C080910A
:1057C000E80080FF06C080E008952091E80022FDF7
:1057D0001AC080912805811589F0853089F0809163
:1057E000EB0085FD0FC02091E4003091E5004217E9
:1057F0005307F9F29150E1F684E0089582E00895AC
:1058000083E0089581E008955FD066D0E0EEF0E097
:10581000808181608083E8ED80818F77808319BCEF
:10582000A7EDB0E08C918E7F8C9380818F7E8083FA
:10583000109227050895CF93DF9346D04DD0C8ED41
:10584000D0E088818F778883888180688883888189
:105850008F7D888319BC1092280510922405109220
:10586000260510922505E0EEF0E080818B7F808395
:1058700088818160888342E060E080E041DFE1EE82
:10588000F0E080818E7F8083E2EE80818160808382
:10589000808188608083E0EE80818E7F8083888134
:1058A00080618883DF91CF910895E8EDF0E08081F9
:1058B0008F7E8083E7ED80818160808384E082BF7A
:1058C00081E080932705B7CFE8EDF0E080818E7FFF
:1058D00080831092E20008951092DA001092E100A5
:1058E00008951F920F920FB60F9211242F933F939A
:1058F0004F935F936F937F938F939F93AF93BF93D8
:10590000EF93FF938091E10082FF0AC08091E20053
:1059100082FF06C08091E1008B7F8093E100D0DBA5
:105920008091DA0080FF18C08091D80080FF14C0F9
:105930008091DA008E7F8093DA008091D90080FF19
:105940008FC080E189BD82E189BD09B400FEFDCF31
:1059500081E0809328055BDB8091E10080FF18C027
:105960008091E20080FF14C08091E2008E7F8093DE
:10597000E2008091E20080618093E2008091D80093
:1059800080628093D80019BC85E0809328056ADB8B
:105990008091E10084FF28C08091E20084FF24C050
:1059A00080E189BD82E189BD09B400FEFDCF80910F
:1059B000D8008F7D8093D8008091E1008F7E809306
:1059C000E1008091E2008F7E8093E2008091E2000E
:1059D00081608093E20080912405811509F445C01F
:1059E00084E08093280554DB8091E10083FF27C089
:1059F0008091E20083FF23C08091E100877F809344
:105A0000E10082E080932805109224058091E10056
:105A10008E7F8093E1008091E2008E7F8093E20090
:105A20008091E20080618093E20042E060E080E0EB
:105A300067DE8091F00088608093F00007DBFF91C3
:105A4000EF91BF91AF919F918F917F916F915F91F6
:105A50004F913F912F910F900FBE0F901F9018956F
:105A600019BC10922805E7DA77CF8091E30087FF11
:105A700002C083E0B6CF81E0B4CF1F920F920FB681
:105A80000F9211241F932F933F934F935F936F9324
:105A90007F938F939F93AF93BF93CF93DF93EF93B6
:105AA000FF93E9EEF0E080811091EC008F7010FB25
:105AB000112717F9182B1082C0EFD0E08881877F5B
:105AC000888378941CD0E9EEF0E0108288818860A9
:105AD00088831F701083FF91EF91DF91CF91BF9169
